{
  "contractName": "FootballCompetition",
  "abi": [
    {
      "constant": false,
      "inputs": [],
      "name": "renounceOwnership",
      "outputs": [],
      "payable": false,
      "stateMutability": "nonpayable",
      "type": "function"
    },
    {
      "constant": true,
      "inputs": [],
      "name": "owner",
      "outputs": [
        {
          "name": "",
          "type": "address"
        }
      ],
      "payable": false,
      "stateMutability": "view",
      "type": "function"
    },
    {
      "constant": true,
      "inputs": [],
      "name": "isOwner",
      "outputs": [
        {
          "name": "",
          "type": "bool"
        }
      ],
      "payable": false,
      "stateMutability": "view",
      "type": "function"
    },
    {
      "constant": false,
      "inputs": [
        {
          "name": "newOwner",
          "type": "address"
        }
      ],
      "name": "transferOwnership",
      "outputs": [],
      "payable": false,
      "stateMutability": "nonpayable",
      "type": "function"
    },
    {
      "inputs": [],
      "payable": false,
      "stateMutability": "nonpayable",
      "type": "constructor"
    },
    {
      "anonymous": false,
      "inputs": [
        {
          "indexed": true,
          "name": "previousOwner",
          "type": "address"
        },
        {
          "indexed": true,
          "name": "newOwner",
          "type": "address"
        }
      ],
      "name": "OwnershipTransferred",
      "type": "event"
    },
    {
      "constant": true,
      "inputs": [
        {
          "name": "competitionId",
          "type": "uint8"
        }
      ],
      "name": "isOrganizer",
      "outputs": [
        {
          "name": "",
          "type": "bool"
        }
      ],
      "payable": false,
      "stateMutability": "view",
      "type": "function"
    },
    {
      "constant": true,
      "inputs": [],
      "name": "getTeamCount",
      "outputs": [
        {
          "name": "",
          "type": "uint8"
        }
      ],
      "payable": false,
      "stateMutability": "view",
      "type": "function"
    },
    {
      "constant": true,
      "inputs": [],
      "name": "getCompetitionCount",
      "outputs": [
        {
          "name": "",
          "type": "uint8"
        }
      ],
      "payable": false,
      "stateMutability": "view",
      "type": "function"
    },
    {
      "constant": false,
      "inputs": [
        {
          "name": "name",
          "type": "string"
        }
      ],
      "name": "addTeam",
      "outputs": [],
      "payable": false,
      "stateMutability": "nonpayable",
      "type": "function"
    },
    {
      "constant": true,
      "inputs": [
        {
          "name": "id",
          "type": "uint8"
        }
      ],
      "name": "getTeam",
      "outputs": [
        {
          "name": "",
          "type": "uint8"
        },
        {
          "name": "",
          "type": "string"
        }
      ],
      "payable": false,
      "stateMutability": "view",
      "type": "function"
    },
    {
      "constant": false,
      "inputs": [
        {
          "name": "name",
          "type": "string"
        },
        {
          "name": "startTimestamp",
          "type": "uint256"
        },
        {
          "name": "winnerTimestamp",
          "type": "uint256"
        }
      ],
      "name": "addCompetition",
      "outputs": [],
      "payable": false,
      "stateMutability": "nonpayable",
      "type": "function"
    },
    {
      "constant": true,
      "inputs": [
        {
          "name": "id",
          "type": "uint8"
        }
      ],
      "name": "getCompetition",
      "outputs": [
        {
          "name": "",
          "type": "uint8"
        },
        {
          "name": "",
          "type": "string"
        },
        {
          "name": "",
          "type": "address"
        },
        {
          "name": "",
          "type": "uint256"
        },
        {
          "name": "",
          "type": "uint256"
        },
        {
          "name": "",
          "type": "uint256"
        },
        {
          "name": "",
          "type": "bool"
        },
        {
          "name": "",
          "type": "uint8"
        },
        {
          "name": "",
          "type": "uint8[]"
        },
        {
          "name": "",
          "type": "uint8"
        }
      ],
      "payable": false,
      "stateMutability": "view",
      "type": "function"
    },
    {
      "constant": false,
      "inputs": [
        {
          "name": "competitionId",
          "type": "uint8"
        },
        {
          "name": "teamId",
          "type": "uint8"
        }
      ],
      "name": "addTeamToCompetition",
      "outputs": [],
      "payable": false,
      "stateMutability": "nonpayable",
      "type": "function"
    },
    {
      "constant": false,
      "inputs": [
        {
          "name": "competitionId",
          "type": "uint8"
        },
        {
          "name": "teamId",
          "type": "uint8"
        }
      ],
      "name": "joinCompetition",
      "outputs": [],
      "payable": false,
      "stateMutability": "nonpayable",
      "type": "function"
    },
    {
      "constant": false,
      "inputs": [
        {
          "name": "competitionId",
          "type": "uint8"
        },
        {
          "name": "teamId",
          "type": "uint8"
        }
      ],
      "name": "setWinningTeam",
      "outputs": [],
      "payable": false,
      "stateMutability": "nonpayable",
      "type": "function"
    },
    {
      "constant": true,
      "inputs": [
        {
          "name": "competitionId",
          "type": "uint8"
        }
      ],
      "name": "checkWinnings",
      "outputs": [
        {
          "name": "",
          "type": "bool"
        },
        {
          "name": "",
          "type": "uint256"
        },
        {
          "name": "",
          "type": "uint256"
        },
        {
          "name": "",
          "type": "uint256"
        },
        {
          "name": "",
          "type": "uint8"
        }
      ],
      "payable": false,
      "stateMutability": "view",
      "type": "function"
    }
  ],
  "bytecode": "0x608060405234801561001057600080fd5b50336000806101000a81548173ffffffffffffffffffffffffffffffffffffffff021916908373ffffffffffffffffffffffffffffffffffffffff1602179055506000809054906101000a900473ffffffffffffffffffffffffffffffffffffffff1673ffffffffffffffffffffffffffffffffffffffff16600073ffffffffffffffffffffffffffffffffffffffff167f8be0079c531659141344cd1fd0a4f28419497f9722a3daafe3b4186f6b6457e060405160405180910390a360008060146101000a81548160ff021916908360ff16021790555060008060156101000a81548160ff021916908360ff160217905550612903806101126000396000f3fe6080604052600436106100db576000357c0100000000000000000000000000000000000000000000000000000000900463ffffffff168063460bff64146100e0578063715018a6146101bc5780638da5cb5b146101d35780638f32d59b1461022a5780639905a9f7146102595780639ab382121461028a5780639c923607146102d5578063b41f3d101461034d578063c11d0b0414610398578063ce15647a146103ee578063e46a1973146104b2578063eb1fa9fa146104fd578063f119ada41461052e578063f2fde38b146105f6578063f47d986e14610647575b600080fd5b3480156100ec57600080fd5b506101ba6004803603606081101561010357600080fd5b810190808035906020019064010000000081111561012057600080fd5b82018360208201111561013257600080fd5b8035906020019184600183028401116401000000008311171561015457600080fd5b91908080601f016020809104026020016040519081016040528093929190818152602001838380828437600081840152601f19601f82011690508083019250505050505050919291929080359060200190929190803590602001909291905050506107c0565b005b3480156101c857600080fd5b506101d1610bd8565b005b3480156101df57600080fd5b506101e8610d13565b604051808273ffffffffffffffffffffffffffffffffffffffff1673ffffffffffffffffffffffffffffffffffffffff16815260200191505060405180910390f35b34801561023657600080fd5b5061023f610d3c565b604051808215151515815260200191505060405180910390f35b34801561026557600080fd5b5061026e610d93565b604051808260ff1660ff16815260200191505060405180910390f35b34801561029657600080fd5b506102d3600480360360408110156102ad57600080fd5b81019080803560ff169060200190929190803560ff169060200190929190505050610da9565b005b3480156102e157600080fd5b50610311600480360360208110156102f857600080fd5b81019080803560ff16906020019092919050505061120b565b60405180861515151581526020018581526020018481526020018381526020018260ff1660ff1681526020019550505050505060405180910390f35b34801561035957600080fd5b506103966004803603604081101561037057600080fd5b81019080803560ff169060200190929190803560ff169060200190929190505050611555565b005b3480156103a457600080fd5b506103d4600480360360208110156103bb57600080fd5b81019080803560ff169060200190929190505050611908565b604051808215151515815260200191505060405180910390f35b3480156103fa57600080fd5b5061042a6004803603602081101561041157600080fd5b81019080803560ff16906020019092919050505061197c565b604051808360ff1660ff16815260200180602001828103825283818151815260200191508051906020019080838360005b8381101561047657808201518184015260208101905061045b565b50505050905090810190601f1680156104a35780820380516001836020036101000a031916815260200191505b50935050505060405180910390f35b3480156104be57600080fd5b506104fb600480360360408110156104d557600080fd5b81019080803560ff169060200190929190803560ff169060200190929190505050611b12565b005b34801561050957600080fd5b50610512611fed565b604051808260ff1660ff16815260200191505060405180910390f35b34801561053a57600080fd5b506105f46004803603602081101561055157600080fd5b810190808035906020019064010000000081111561056e57600080fd5b82018360208201111561058057600080fd5b803590602001918460018302840111640100000000831117156105a257600080fd5b91908080601f016020809104026020016040519081016040528093929190818152602001838380828437600081840152601f19601f820116905080830192505050505050509192919290505050612003565b005b34801561060257600080fd5b506106456004803603602081101561061957600080fd5b81019080803573ffffffffffffffffffffffffffffffffffffffff1690602001909291905050506121f5565b005b34801561065357600080fd5b506106836004803603602081101561066a57600080fd5b81019080803560ff16906020019092919050505061227d565b604051808b60ff1660ff168152602001806020018a73ffffffffffffffffffffffffffffffffffffffff1673ffffffffffffffffffffffffffffffffffffffff168152602001898152602001888152602001878152602001861515151581526020018560ff1660ff168152602001806020018460ff1660ff16815260200183810383528c818151815260200191508051906020019080838360005b8381101561073957808201518184015260208101905061071e565b50505050905090810190601f1680156107665780820380516001836020036101000a031916815260200191505b50838103825285818151815260200191508051906020019060200280838360005b838110156107a2578082015181840152602081019050610787565b505050509050019c5050505050505050505050505060405180910390f35b60ff8016600060149054906101000a900460ff1660ff1610151561084c576040517f08c379a000000000000000000000000000000000000000000000000000000000815260040180806020018281038252601d8152602001807f43616e6e6f7420616464206d6f726520636f6d7065746974696f6e732e00000081525060200191505060405180910390fd5b8142111515156108c4576040517f08c379a00000000000000000000000000000000000000000000000000000000081526004018080602001828103825260138152602001807f496e76616c696420737461727420646174652e0000000000000000000000000081525060200191505060405180910390fd5b808210151561093b576040517f08c379a00000000000000000000000000000000000000000000000000000000081526004018080602001828103825260148152602001807f496e76616c69642077696e6e657220646174652e00000000000000000000000081525060200191505060405180910390fd5b6001600060148282829054906101000a900460ff160192506101000a81548160ff021916908360ff1602179055506109716126dd565b600060149054906101000a900460ff16816000019060ff16908160ff168152505083816020018190525033816040019073ffffffffffffffffffffffffffffffffffffffff16908173ffffffffffffffffffffffffffffffffffffffff168152505060018160600190151590811515815250506000816080018181525050828160a0018181525050818160c001818152505060008160e001901515908115158152505060ff604051908082528060200260200182016040528015610a445781602001602082028038833980820191505090505b50816101200181905250600081610140019060ff16908160ff168152505080600260008060149054906101000a900460ff1660ff1660ff16815260200190815260200160002060008201518160000160006101000a81548160ff021916908360ff1602179055506020820151816001019080519060200190610ac792919061275b565b5060408201518160020160006101000a81548173ffffffffffffffffffffffffffffffffffffffff021916908373ffffffffffffffffffffffffffffffffffffffff16021790555060608201518160020160146101000a81548160ff0219169083151502179055506080820151816003015560a0820151816004015560c0820151816005015560e08201518160060160006101000a81548160ff0219169083151502179055506101008201518160060160016101000a81548160ff021916908360ff160217905550610120820151816007019080519060200190610bac9291906127db565b506101408201518160080160006101000a81548160ff021916908360ff16021790555090505050505050565b610be0610d3c565b1515610c54576040517f08c379a000000000000000000000000000000000000000000000000000000000815260040180806020018281038252600a8152602001807f4e6f74206f776e65722e0000000000000000000000000000000000000000000081525060200191505060405180910390fd5b600073ffffffffffffffffffffffffffffffffffffffff166000809054906101000a900473ffffffffffffffffffffffffffffffffffffffff1673ffffffffffffffffffffffffffffffffffffffff167f8be0079c531659141344cd1fd0a4f28419497f9722a3daafe3b4186f6b6457e060405160405180910390a360008060006101000a81548173ffffffffffffffffffffffffffffffffffffffff021916908373ffffffffffffffffffffffffffffffffffffffff160217905550565b60008060009054906101000a900473ffffffffffffffffffffffffffffffffffffffff16905090565b60008060009054906101000a900473ffffffffffffffffffffffffffffffffffffffff1673ffffffffffffffffffffffffffffffffffffffff163373ffffffffffffffffffffffffffffffffffffffff1614905090565b60008060159054906101000a900460ff16905090565b8160011515600260008360ff1660ff16815260200190815260200160002060020160149054906101000a900460ff161515141515610e4f576040517f08c379a000000000000000000000000000000000000000000000000000000000815260040180806020018281038252601b8152602001807f436f6d7065746974696f6e20646f6573206e6f742065786973742e000000000081525060200191505060405180910390fd5b82600260008260ff1660ff1681526020019081526020016000206004015442101515610ee3576040517f08c379a000000000000000000000000000000000000000000000000000000000815260040180806020018281038252601c8152602001807f436f6d7065746974696f6e20616c726561647920737461727465642e0000000081525060200191505060405180910390fd5b838360011515600260008460ff1660ff16815260200190815260200160002060090160008360ff1660ff16815260200190815260200160002060009054906101000a900460ff161515141515610fc7576040517f08c379a00000000000000000000000000000000000000000000000000000000081526004018080602001828103825260248152602001807f5465616d206973206e6f7420617661696c61626c6520696e20636f6d7065746981526020017f74696f6e0000000000000000000000000000000000000000000000000000000081525060400191505060405180910390fd5b60001515600260008860ff1660ff168152602001908152602001600020600b0160003373ffffffffffffffffffffffffffffffffffffffff1673ffffffffffffffffffffffffffffffffffffffff16815260200190815260200160002060000160019054906101000a900460ff1615151415156110ac576040517f08c379a00000000000000000000000000000000000000000000000000000000081526004018080602001828103825260178152602001807f416c726561647920696e20636f6d7065746974696f6e2e00000000000000000081525060200191505060405180910390fd5b600a600260008860ff1660ff168152602001908152602001600020600301600082825401925050819055506001600260008860ff1660ff168152602001908152602001600020600b0160003373ffffffffffffffffffffffffffffffffffffffff1673ffffffffffffffffffffffffffffffffffffffff16815260200190815260200160002060000160016101000a81548160ff02191690831515021790555084600260008860ff1660ff168152602001908152602001600020600b0160003373ffffffffffffffffffffffffffffffffffffffff1673ffffffffffffffffffffffffffffffffffffffff16815260200190815260200160002060000160006101000a81548160ff021916908360ff1602179055506001600260008860ff1660ff168152602001908152602001600020600a0160008760ff1660ff16815260200190815260200160002060008282540192505081905550505050505050565b60008060008060008560011515600260008360ff1660ff16815260200190815260200160002060020160149054906101000a900460ff1615151415156112b9576040517f08c379a000000000000000000000000000000000000000000000000000000000815260040180806020018281038252601b8152602001807f436f6d7065746974696f6e20646f6573206e6f742065786973742e000000000081525060200191505060405180910390fd5b60011515600260008960ff1660ff168152602001908152602001600020600b0160003373ffffffffffffffffffffffffffffffffffffffff1673ffffffffffffffffffffffffffffffffffffffff16815260200190815260200160002060000160019054906101000a900460ff16151514151561139e576040517f08c379a000000000000000000000000000000000000000000000000000000000815260040180806020018281038252601f8152602001807f4164647265737320776173206e6f7420696e20636f6d7065746974696f6e2e0081525060200191505060405180910390fd5b60011515600260008960ff1660ff16815260200190815260200160002060060160009054906101000a900460ff161515141515611443576040517f08c379a00000000000000000000000000000000000000000000000000000000081526004018080602001828103825260198152602001807f57696e6e696e67207465616d206e6f7420736574207965742e0000000000000081525060200191505060405180910390fd5b6000600260008960ff1660ff168152602001908152602001600020905060008160060160019054906101000a900460ff169050600082600b0160003373ffffffffffffffffffffffffffffffffffffffff1673ffffffffffffffffffffffffffffffffffffffff16815260200190815260200160002060000160009054906101000a900460ff16905060008260ff168260ff16149050600084600301549050600085600a0160008660ff1660ff168152602001908152602001600020549050600080905060011515841515141561153557600182111561153057818381151561152857fe5b049050611534565b8290505b5b83838284889c509c509c509c509c50505050505050505091939590929450565b8161155f81611908565b15156115d3576040517f08c379a000000000000000000000000000000000000000000000000000000000815260040180806020018281038252600e8152602001807f4e6f74204f7267616e697a65722e00000000000000000000000000000000000081525060200191505060405180910390fd5b8260011515600260008360ff1660ff16815260200190815260200160002060020160149054906101000a900460ff161515141515611679576040517f08c379a000000000000000000000000000000000000000000000000000000000815260040180806020018281038252601b8152602001807f436f6d7065746974696f6e20646f6573206e6f742065786973742e000000000081525060200191505060405180910390fd5b838360011515600260008460ff1660ff16815260200190815260200160002060090160008360ff1660ff16815260200190815260200160002060009054906101000a900460ff16151514151561175d576040517f08c379a00000000000000000000000000000000000000000000000000000000081526004018080602001828103825260248152602001807f5465616d206973206e6f7420617661696c61626c6520696e20636f6d7065746981526020017f74696f6e0000000000000000000000000000000000000000000000000000000081525060400191505060405180910390fd5b60001515600260008860ff1660ff16815260200190815260200160002060060160009054906101000a900460ff161515141515611802576040517f08c379a00000000000000000000000000000000000000000000000000000000081526004018080602001828103825260168152602001807f57696e6e657220697320616c7265616479207365742e0000000000000000000081525060200191505060405180910390fd5b600260008760ff1660ff168152602001908152602001600020600501544210151515611896576040517f08c379a000000000000000000000000000000000000000000000000000000000815260040180806020018281038252601d8152602001807f436f6d7065746974696f6e206e6f742066696e6973686564207965742e00000081525060200191505060405180910390fd5b6001600260008860ff1660ff16815260200190815260200160002060060160006101000a81548160ff02191690831515021790555084600260008860ff1660ff16815260200190815260200160002060060160016101000a81548160ff021916908360ff160217905550505050505050565b6000600260008360ff1660ff16815260200190815260200160002060020160009054906101000a900473ffffffffffffffffffffffffffffffffffffffff1673ffffffffffffffffffffffffffffffffffffffff163373ffffffffffffffffffffffffffffffffffffffff16149050919050565b600060608260011515600160008360ff1660ff16815260200190815260200160002060020160009054906101000a900460ff161515141515611a26576040517f08c379a00000000000000000000000000000000000000000000000000000000081526004018080602001828103825260148152602001807f5465616d20646f6573206e6f742065786973742e00000000000000000000000081525060200191505060405180910390fd5b600160008560ff1660ff16815260200190815260200160002060000160009054906101000a900460ff16600160008660ff1660ff168152602001908152602001600020600101808054600181600116156101000203166002900480601f016020809104026020016040519081016040528092919081815260200182805460018160011615610100020316600290048015611b015780601f10611ad657610100808354040283529160200191611b01565b820191906000526020600020905b815481529060010190602001808311611ae457829003601f168201915b505050505090509250925050915091565b81611b1c81611908565b1515611b90576040517f08c379a000000000000000000000000000000000000000000000000000000000815260040180806020018281038252600e8152602001807f4e6f74204f7267616e697a65722e00000000000000000000000000000000000081525060200191505060405180910390fd5b8160011515600160008360ff1660ff16815260200190815260200160002060020160009054906101000a900460ff161515141515611c36576040517f08c379a00000000000000000000000000000000000000000000000000000000081526004018080602001828103825260148152602001807f5465616d20646f6573206e6f742065786973742e00000000000000000000000081525060200191505060405180910390fd5b8360011515600260008360ff1660ff16815260200190815260200160002060020160149054906101000a900460ff161515141515611cdc576040517f08c379a000000000000000000000000000000000000000000000000000000000815260040180806020018281038252601b8152602001807f436f6d7065746974696f6e20646f6573206e6f742065786973742e000000000081525060200191505060405180910390fd5b84600260008260ff1660ff1681526020019081526020016000206004015442101515611d70576040517f08c379a000000000000000000000000000000000000000000000000000000000815260040180806020018281038252601c8152602001807f436f6d7065746974696f6e20616c726561647920737461727465642e0000000081525060200191505060405180910390fd5b60011515600160008760ff1660ff16815260200190815260200160002060020160009054906101000a900460ff161515141515611e15576040517f08c379a00000000000000000000000000000000000000000000000000000000081526004018080602001828103825260138152602001807f5465616d20646f6573206e6f742065786973740000000000000000000000000081525060200191505060405180910390fd5b60001515600260008860ff1660ff16815260200190815260200160002060090160008760ff1660ff16815260200190815260200160002060009054906101000a900460ff161515141515611ed1576040517f08c379a000000000000000000000000000000000000000000000000000000000815260040180806020018281038252601c8152602001807f5465616d20616c726561647920696e20636f6d7065746974696f6e2e0000000081525060200191505060405180910390fd5b6001600260008860ff1660ff16815260200190815260200160002060090160008760ff1660ff16815260200190815260200160002060006101000a81548160ff02191690831515021790555084600260008860ff1660ff168152602001908152602001600020600701600260008960ff1660ff16815260200190815260200160002060080160009054906101000a900460ff1660ff16815481101515611f7357fe5b90600052602060002090602091828204019190066101000a81548160ff021916908360ff1602179055506001600260008860ff1660ff16815260200190815260200160002060080160008282829054906101000a900460ff160192506101000a81548160ff021916908360ff160217905550505050505050565b60008060149054906101000a900460ff16905090565b61200b610d3c565b151561207f576040517f08c379a000000000000000000000000000000000000000000000000000000000815260040180806020018281038252600a8152602001807f4e6f74206f776e65722e0000000000000000000000000000000000000000000081525060200191505060405180910390fd5b60ff8016600060159054906101000a900460ff1660ff1610151561210b576040517f08c379a00000000000000000000000000000000000000000000000000000000081526004018080602001828103825260168152602001807f43616e6e6f7420616464206d6f7265207465616d732e0000000000000000000081525060200191505060405180910390fd5b6001600060158282829054906101000a900460ff160192506101000a81548160ff021916908360ff160217905550606060405190810160405280600060159054906101000a900460ff1660ff16815260200182815260200160011515815250600160008060159054906101000a900460ff1660ff1660ff16815260200190815260200160002060008201518160000160006101000a81548160ff021916908360ff16021790555060208201518160010190805190602001906121ce92919061275b565b5060408201518160020160006101000a81548160ff02191690831515021790555090505050565b6121fd610d3c565b1515612271576040517f08c379a000000000000000000000000000000000000000000000000000000000815260040180806020018281038252600a8152602001807f4e6f74206f776e65722e0000000000000000000000000000000000000000000081525060200191505060405180910390fd5b61227a816125e3565b50565b60006060600080600080600080606060008a60011515600260008360ff1660ff16815260200190815260200160002060020160149054906101000a900460ff161515141515612334576040517f08c379a000000000000000000000000000000000000000000000000000000000815260040180806020018281038252601b8152602001807f436f6d7065746974696f6e20646f6573206e6f742065786973742e000000000081525060200191505060405180910390fd5b61233c6126dd565b600260008e60ff1660ff16815260200190815260200160002061016060405190810160405290816000820160009054906101000a900460ff1660ff1660ff168152602001600182018054600181600116156101000203166002900480601f0160208091040260200160405190810160405280929190818152602001828054600181600116156101000203166002900480156124185780601f106123ed57610100808354040283529160200191612418565b820191906000526020600020905b8154815290600101906020018083116123fb57829003601f168201915b505050505081526020016002820160009054906101000a900473ffffffffffffffffffffffffffffffffffffffff1673ffffffffffffffffffffffffffffffffffffffff1673ffffffffffffffffffffffffffffffffffffffff1681526020016002820160149054906101000a900460ff161515151581526020016003820154815260200160048201548152602001600582015481526020016006820160009054906101000a900460ff161515151581526020016006820160019054906101000a900460ff1660ff1660ff1681526020016007820180548060200260200160405190810160405280929190818152602001828054801561255d57602002820191906000526020600020906000905b82829054906101000a900460ff1660ff16815260200190600101906020826000010492830192600103820291508084116125265790505b505050505081526020016008820160009054906101000a900460ff1660ff1660ff1681525050905080600001518160200151826040015183608001518460a001518560c001518660e001518761010001518861012001518961014001518898508191509b509b509b509b509b509b509b509b509b509b5050509193959799509193959799565b600073ffffffffffffffffffffffffffffffffffffffff168173ffffffffffffffffffffffffffffffffffffffff161415151561261f57600080fd5b8073ffffffffffffffffffffffffffffffffffffffff166000809054906101000a900473ffffffffffffffffffffffffffffffffffffffff1673ffffffffffffffffffffffffffffffffffffffff167f8be0079c531659141344cd1fd0a4f28419497f9722a3daafe3b4186f6b6457e060405160405180910390a3806000806101000a81548173ffffffffffffffffffffffffffffffffffffffff021916908373ffffffffffffffffffffffffffffffffffffffff16021790555050565b61016060405190810160405280600060ff16815260200160608152602001600073ffffffffffffffffffffffffffffffffffffffff168152602001600015158152602001600081526020016000815260200160008152602001600015158152602001600060ff16815260200160608152602001600060ff1681525090565b828054600181600116156101000203166002900490600052602060002090601f016020900481019282601f1061279c57805160ff19168380011785556127ca565b828001600101855582156127ca579182015b828111156127c95782518255916020019190600101906127ae565b5b5090506127d79190612882565b5090565b82805482825590600052602060002090601f016020900481019282156128715791602002820160005b8382111561284257835183826101000a81548160ff021916908360ff1602179055509260200192600101602081600001049283019260010302612804565b801561286f5782816101000a81549060ff0219169055600101602081600001049283019260010302612842565b505b50905061287e91906128a7565b5090565b6128a491905b808211156128a0576000816000905550600101612888565b5090565b90565b6128d491905b808211156128d057600081816101000a81549060ff0219169055506001016128ad565b5090565b9056fea165627a7a72305820d5def99c73d9e1cd3ec837a55c1f9eaa273c7055f19a44d8027d184ddabe1d5e0029",
  "source": "pragma solidity ^0.5.0;\n\n// Ownable.sol\nimport \"installed_contracts/zeppelin/contracts/ownership/Ownable.sol\";\n\n/* Contact used for football competitions */\ncontract FootballCompetition is Ownable {\n\n    /* football competition */\n    /* for the purposes of the problem only 255 competitions can be added to this contract */\n    struct Competition {\n        uint8 id;                   // competition id\n        string name;                // name for competition\n        address organizer;          // the address organizing the competition\n        bool created;               // is competition created\n        uint potBalance;            // total balance in competition\n        uint256 startTimestamp;     // competition start timestamp\n        uint256 winnerTimestamp;    // competition winner announcement timestamp\n        bool winnerAnnounced;       // is the winner announced \n        uint8 winningTeam;          // the winning team\n\n        uint8[] teamIds;                               // holds a list of team ids\n        uint8 totalTeams;                              // total number of teams\n        mapping(uint8 => bool) teams;                  // teams available in competition\n        mapping(uint8 => uint) betsOnTeam;             // total bets on a team\n        mapping(address => Participant) participants;  // the participants in the competition\n    }\n    \n    /* struct for team */\n    struct Team {\n        uint8 id;       // team id \n        string name;    // team name\n        bool nameSet;   // is team name set\n    }\n    \n    /* struct for participant */\n    struct Participant {\n        uint8 teamId;       // team betting on\n        bool isCompeting;   // is participant competing\n    }\n\n    /* holds count of the total competitions */\n    uint8 private competitionCount;\n   \n    /* the maximum competitions which can be added */\n    uint8 constant maxCompetitions = 255;\n\n    /* the maximum football teams which can be added */\n    uint8 constant maxFootballTeams = 255;\n    \n    /* holds count of the total teams */\n    uint8 private teamCount;\n\n    /* holds football teams which can be found in any competition */\n    /* for the purposes of the problem only 255 teams can be added to this contract */\n    mapping(uint8 => Team) private footballTeams;\n\n    /* holds a mapping of available competitions */\n    /* for the purposes of the problem only 255 competitions can be added to this contract */\n    mapping(uint8 => Competition) private competitions;\n\n    /* this constructor is executed at initialization and sets the owner of the contract */\n    constructor() public { \n        competitionCount = 0; // set number of competitions to 0\n        teamCount = 0;        // set number of teams to 0\n    }\n\n    /**\n    * @dev Throws if called by any account other than the owner.\n    */\n    modifier onlyOrganizer(uint8 competitionId) {\n        require(isOrganizer(competitionId), \"Not Organizer.\");\n        _;\n    }\n\n    /**\n    * @return true if `msg.sender` is the organizer of the competition.\n    */\n    function isOrganizer(uint8 competitionId) public view returns (bool) {\n        return msg.sender == competitions[competitionId].organizer;\n    }\n    \n    /**\n    * @dev Throws if competition does not exist.\n    */\n    modifier competitionExist(uint8 competitionId) {\n        require(competitions[competitionId].created == true, \"Competition does not exist.\");\n        _;\n    }\n    \n    /**\n    * @dev Throws if team does not exist.\n    */\n    modifier teamExist(uint8 teamId) {\n        require(footballTeams[teamId].nameSet == true, \"Team does not exist.\");\n        _;\n    }\n\n    /**\n    * @dev Throws if called competition already started.\n    */\n    modifier competitionStarted(uint8 competitionId) {\n        require(now < competitions[competitionId].startTimestamp, \"Competition already started.\");\n        _;\n    }\n\n    /**\n    * @dev Throws if team is not in competition.\n    */\n    modifier teamInCompetition(uint8 competitionId, uint8 teamId) {\n        require(competitions[competitionId].teams[teamId] == true, \"Team is not available in competition\");\n        _;\n    }\n    \n     /* returns the total number of teams */\n    function getTeamCount() public view returns (uint8) {\n        return teamCount;\n    }\n\n    /* returns the total number of competitions */\n    function getCompetitionCount() public view returns (uint8) {\n        return competitionCount;\n    }\n\n    /* add a new team to this contract (only the one who deployed contract can add team) */\n    /* these teams can be used in a specific competition */\n    /* this insures transparency as it cant be edited and the participant  */\n    /* is insured that team with a specific id is the team with a specific name */\n    function addTeam(string memory name) public onlyOwner() {\n\n        // check if more teams can be added to this contract\n        require(teamCount < maxFootballTeams, \"Cannot add more teams.\");\n        \n        // increment before as we dont want id 0 to be a team\n        teamCount += 1;\n        \n        // adds a new team \n        footballTeams[teamCount] = Team(teamCount, name, true);\n    }\n\n    // get team name for the specified id \n    function getTeam(uint8 id) public view teamExist(id) returns(\n        uint8, \n        string \n        memory\n    ) \n    {\n        // return team information\n        return (footballTeams[id].id, footballTeams[id].name);\n    }\n\n    /* add a new competition (anyone can start a competition) */\n    function addCompetition(\n        string memory name,     // name of competition\n        uint256 startTimestamp, // competition starting date\n        uint256 winnerTimestamp // competition winner announcement date\n    ) \n        public \n    {\n        \n        // check if more competitions can be added to this contract\n        require(competitionCount < maxCompetitions, \"Cannot add more competitions.\");\n        \n        // check dates \n        require(now <= startTimestamp, \"Invalid start date.\");\n        require(startTimestamp < winnerTimestamp, \"Invalid winner date.\");\n\n        // increment before as we dont want id 0 to be a competition\n        competitionCount += 1;\n\n        // set values for new competition\n        Competition memory newCompetition;\n        newCompetition.id = competitionCount;\n        newCompetition.name = name; \n        newCompetition.organizer = msg.sender;\n        newCompetition.created = true;\n        newCompetition.potBalance = 0;\n        newCompetition.startTimestamp = startTimestamp;\n        newCompetition.winnerTimestamp = winnerTimestamp;\n        newCompetition.winnerAnnounced = false;\n        newCompetition.teamIds = new uint8[](255);\n        newCompetition.totalTeams = 0;\n\n        // add competition\n        competitions[competitionCount] = newCompetition;\n    }\n\n    /* return details about a competition */\n    function getCompetition(uint8 id) public view competitionExist(id) returns (\n        uint8,          // competition id \n        string memory,  // competition name\n        address,        // organizer \n        uint,           // pot balance\n        uint256,        // start ts\n        uint256,        // end timestamp\n        bool,           // winner announced \n        uint8,          // winning team\n        uint8[] memory, // team ids\n        uint8           // total teams\n    ) \n    {\n        Competition memory tmpCompetition = competitions[id];\n        return(\n            tmpCompetition.id,\n            tmpCompetition.name,\n            tmpCompetition.organizer,\n            tmpCompetition.potBalance,\n            tmpCompetition.startTimestamp,\n            tmpCompetition.winnerTimestamp,\n            tmpCompetition.winnerAnnounced,\n            tmpCompetition.winningTeam,\n            tmpCompetition.teamIds,\n            tmpCompetition.totalTeams\n        );\n    }\n\n    /* teams to be added in a competition must be entered one by one */\n    /* this is because of the problems of evm and unbounded loops */\n    /* only accessible by organizer */\n    function addTeamToCompetition(\n        uint8 competitionId,    // the competition id to add new team\n        uint8 teamId            // the team which will be added to the competition\n    )\n        public \n        onlyOrganizer(competitionId)        // only accessible by organizer\n        teamExist(teamId)                   // check if team exist\n        competitionExist(competitionId)     // check if competition exist\n        competitionStarted(competitionId)   // check if competition started\n    {   \n        // check if team exists\n        require(footballTeams[teamId].nameSet == true, \"Team does not exist\");\n\n        // check if team is already in competition (cannot override teams!)\n        require(competitions[competitionId].teams[teamId] == false, \"Team already in competition.\");\n\n        // add team to competition\n        competitions[competitionId].teams[teamId] = true;\n\n        // increment total number of teams in competition and add team to competition\n        competitions[competitionId].teamIds[competitions[competitionId].totalTeams] = teamId;\n        competitions[competitionId].totalTeams += 1;\n    }\n\n    /* allows participants to join a specific competition */\n    function joinCompetition(\n        uint8 competitionId,    // competion id which the address will be joining\n        uint8 teamId            // the team id which the address is betting on\n    ) \n        public \n        competitionExist(competitionId)             // check if competition exist\n        competitionStarted(competitionId)           // check if competition started\n        teamInCompetition(competitionId, teamId)    // check if team is available in competition\n    {\n        // check if the one joining is already in competition (one address one bet) \n        require(competitions[competitionId].participants[msg.sender].isCompeting == false, \"Already in competition.\");\n\n        // set new balance for pot\n        competitions[competitionId].potBalance += 10;\n\n        // set team for participant \n        competitions[competitionId].participants[msg.sender].isCompeting = true;\n        competitions[competitionId].participants[msg.sender].teamId = teamId;\n\n        // increment the number of bets on that team\n        competitions[competitionId].betsOnTeam[teamId] += 1;\n    }\n\n    /* set winner for a specific competition only accessible by organizer */\n    function setWinningTeam(\n        uint8 competitionId,    // the competition id to set the winner for\n        uint8 teamId            // the winning team for the competition\n    )\n        public\n        onlyOrganizer(competitionId)                // only accessed by organizer\n        competitionExist(competitionId)             // check if competition exist\n        teamInCompetition(competitionId, teamId)    // check if team is available in competition\n    {\n        // cannot override winner check if winner was already announced \n        require(competitions[competitionId].winnerAnnounced == false, \"Winner is already set.\");\n\n        // can set winner if competition is over \n        require(now >= competitions[competitionId].winnerTimestamp, \"Competition not finished yet.\");\n\n        // set winning team \n        competitions[competitionId].winnerAnnounced = true;\n        competitions[competitionId].winningTeam = teamId;\n    }\n\n    /* check winnings for a participant */\n    function checkWinnings(uint8 competitionId) public view competitionExist(competitionId) returns(\n        bool, \n        uint, \n        uint, \n        uint, \n        uint8\n    )\n    {   \n        \n        // check if participant was actually competing in competition\n        require(competitions[competitionId].participants[msg.sender].isCompeting == true, \"Address was not in competition.\");\n\n        // check that the winner was announced \n        require(competitions[competitionId].winnerAnnounced == true, \"Winning team not set yet.\");\n\n        // get competition\n        Competition storage tmpCompetition = competitions[competitionId];\n        uint8 winningTeam = tmpCompetition.winningTeam;\n        uint8 selectedTeam = tmpCompetition.participants[msg.sender].teamId;\n        bool isWinner = selectedTeam == winningTeam;\n        uint potBalance = tmpCompetition.potBalance;\n        uint totalWinners = tmpCompetition.betsOnTeam[winningTeam];\n\n        // calculate winnings for the one requesting \n        uint winnings = 0; \n        if(isWinner == true){\n            if(totalWinners > 1){\n                winnings = potBalance / totalWinners;\n            }\n            else{\n                winnings = potBalance;\n            }\n        }\n\n        // return values\n        return(\n            isWinner,       // is the address a winner\n            potBalance,     // total in pot\n            winnings,       // winnings by address\n            totalWinners,   // total winners\n            selectedTeam    // the selected team\n        );\n    }\n}",
  "sourcePath": "/home/delinvas/repos/ari5122_assignment/src/solidity/football_competition_truffle/contracts/FootballCompetition.sol",
  "compiler": {
    "name": "solc",
    "version": "0.5.0+commit.1d4f565a.Emscripten.clang"
  },
  "schemaVersion": "3.0.1",
  "updatedAt": "2019-02-10T23:47:39.859Z",
  "devdoc": {
    "methods": {
      "isOrganizer(uint8)": {
        "return": "true if `msg.sender` is the organizer of the competition."
      },
      "isOwner()": {
        "return": "true if `msg.sender` is the owner of the contract."
      },
      "owner()": {
        "return": "the address of the owner."
      },
      "renounceOwnership()": {
        "details": "Allows the current owner to relinquish control of the contract."
      },
      "transferOwnership(address)": {
        "details": "Allows the current owner to transfer control of the contract to a newOwner.",
        "params": {
          "newOwner": "The address to transfer ownership to."
        }
      }
    }
  },
  "userdoc": {
    "methods": {
      "renounceOwnership()": {
        "notice": "Renouncing to ownership will leave the contract without an owner. It will not be possible to call the functions with the `onlyOwner` modifier anymore."
      }
    }
  }
}