{
  "contractName": "MlConsultancy",
  "abi": [
    {
      "constant": false,
      "inputs": [],
      "name": "renounceOwnership",
      "outputs": [],
      "payable": false,
      "stateMutability": "nonpayable",
      "type": "function"
    },
    {
      "constant": true,
      "inputs": [],
      "name": "owner",
      "outputs": [
        {
          "name": "",
          "type": "address"
        }
      ],
      "payable": false,
      "stateMutability": "view",
      "type": "function"
    },
    {
      "constant": true,
      "inputs": [],
      "name": "isOwner",
      "outputs": [
        {
          "name": "",
          "type": "bool"
        }
      ],
      "payable": false,
      "stateMutability": "view",
      "type": "function"
    },
    {
      "constant": true,
      "inputs": [],
      "name": "SERVICE_COST",
      "outputs": [
        {
          "name": "",
          "type": "uint256"
        }
      ],
      "payable": false,
      "stateMutability": "view",
      "type": "function"
    },
    {
      "constant": false,
      "inputs": [
        {
          "name": "newOwner",
          "type": "address"
        }
      ],
      "name": "transferOwnership",
      "outputs": [],
      "payable": false,
      "stateMutability": "nonpayable",
      "type": "function"
    },
    {
      "inputs": [],
      "payable": false,
      "stateMutability": "nonpayable",
      "type": "constructor"
    },
    {
      "anonymous": false,
      "inputs": [
        {
          "indexed": true,
          "name": "previousOwner",
          "type": "address"
        },
        {
          "indexed": true,
          "name": "newOwner",
          "type": "address"
        }
      ],
      "name": "OwnershipTransferred",
      "type": "event"
    },
    {
      "constant": true,
      "inputs": [],
      "name": "getServiceCost",
      "outputs": [
        {
          "name": "",
          "type": "uint256"
        }
      ],
      "payable": false,
      "stateMutability": "view",
      "type": "function"
    },
    {
      "constant": true,
      "inputs": [],
      "name": "getModelCount",
      "outputs": [
        {
          "name": "",
          "type": "uint8"
        }
      ],
      "payable": false,
      "stateMutability": "view",
      "type": "function"
    },
    {
      "constant": true,
      "inputs": [
        {
          "name": "modelId",
          "type": "uint8"
        }
      ],
      "name": "getModelDetails",
      "outputs": [
        {
          "name": "id",
          "type": "uint8"
        },
        {
          "name": "",
          "type": "string"
        },
        {
          "name": "",
          "type": "string"
        },
        {
          "name": "",
          "type": "uint8[]"
        },
        {
          "name": "",
          "type": "uint256"
        }
      ],
      "payable": false,
      "stateMutability": "view",
      "type": "function"
    },
    {
      "constant": false,
      "inputs": [
        {
          "name": "dataset",
          "type": "string"
        },
        {
          "name": "learner",
          "type": "string"
        },
        {
          "name": "outcomes",
          "type": "uint8[]"
        },
        {
          "name": "nDecimals",
          "type": "uint8"
        },
        {
          "name": "nDims",
          "type": "uint8"
        },
        {
          "name": "intercept",
          "type": "int32[]"
        },
        {
          "name": "weights",
          "type": "int32[]"
        }
      ],
      "name": "addModel",
      "outputs": [],
      "payable": false,
      "stateMutability": "nonpayable",
      "type": "function"
    },
    {
      "constant": false,
      "inputs": [
        {
          "name": "modelId",
          "type": "uint8"
        },
        {
          "name": "intercept",
          "type": "int32[]"
        },
        {
          "name": "weights",
          "type": "int32[]"
        }
      ],
      "name": "updateModel",
      "outputs": [],
      "payable": false,
      "stateMutability": "nonpayable",
      "type": "function"
    },
    {
      "constant": false,
      "inputs": [
        {
          "name": "modelId",
          "type": "uint8"
        }
      ],
      "name": "payService",
      "outputs": [],
      "payable": true,
      "stateMutability": "payable",
      "type": "function"
    },
    {
      "constant": true,
      "inputs": [
        {
          "name": "modelId",
          "type": "uint8"
        }
      ],
      "name": "getWeights",
      "outputs": [
        {
          "name": "",
          "type": "uint8[]"
        },
        {
          "name": "",
          "type": "uint8"
        },
        {
          "name": "",
          "type": "uint8"
        },
        {
          "name": "",
          "type": "int32[]"
        },
        {
          "name": "",
          "type": "int32[]"
        }
      ],
      "payable": false,
      "stateMutability": "view",
      "type": "function"
    }
  ],
  "bytecode": "0x6080604052662386f26fc1000060015534801561001b57600080fd5b50336000806101000a81548173ffffffffffffffffffffffffffffffffffffffff021916908373ffffffffffffffffffffffffffffffffffffffff1602179055506000809054906101000a900473ffffffffffffffffffffffffffffffffffffffff1673ffffffffffffffffffffffffffffffffffffffff16600073ffffffffffffffffffffffffffffffffffffffff167f8be0079c531659141344cd1fd0a4f28419497f9722a3daafe3b4186f6b6457e060405160405180910390a36000600560006101000a81548160ff021916908360ff160217905550611d2f806101036000396000f3fe6080604052600436106100ba576000357c0100000000000000000000000000000000000000000000000000000000900463ffffffff1680631cce661b146100bf5780632e13870b146103f45780634989dbb0146105735780634eab1aa4146105a4578063715018a6146106e157806384d1f8a8146106f85780638da5cb5b146107235780638f32d59b1461077a578063917d22bf146107a9578063cb9f75d0146107da578063f2fde38b14610805578063ffe17ac214610856575b600080fd5b3480156100cb57600080fd5b506103f2600480360360e08110156100e257600080fd5b81019080803590602001906401000000008111156100ff57600080fd5b82018360208201111561011157600080fd5b8035906020019184600183028401116401000000008311171561013357600080fd5b91908080601f016020809104026020016040519081016040528093929190818152602001838380828437600081840152601f19601f8201169050808301925050505050505091929192908035906020019064010000000081111561019657600080fd5b8201836020820111156101a857600080fd5b803590602001918460018302840111640100000000831117156101ca57600080fd5b91908080601f016020809104026020016040519081016040528093929190818152602001838380828437600081840152601f19601f8201169050808301925050505050505091929192908035906020019064010000000081111561022d57600080fd5b82018360208201111561023f57600080fd5b8035906020019184602083028401116401000000008311171561026157600080fd5b919080806020026020016040519081016040528093929190818152602001838360200280828437600081840152601f19601f820116905080830192505050505050509192919290803560ff169060200190929190803560ff169060200190929190803590602001906401000000008111156102db57600080fd5b8201836020820111156102ed57600080fd5b8035906020019184602083028401116401000000008311171561030f57600080fd5b919080806020026020016040519081016040528093929190818152602001838360200280828437600081840152601f19601f8201169050808301925050505050505091929192908035906020019064010000000081111561036f57600080fd5b82018360208201111561038157600080fd5b803590602001918460208302840111640100000000831117156103a357600080fd5b919080806020026020016040519081016040528093929190818152602001838360200280828437600081840152601f19601f8201169050808301925050505050505091929192905050506109bc565b005b34801561040057600080fd5b506104306004803603602081101561041757600080fd5b81019080803560ff169060200190929190505050610cb1565b604051808660ff1660ff168152602001806020018060200180602001858152602001848103845288818151815260200191508051906020019080838360005b8381101561048a57808201518184015260208101905061046f565b50505050905090810190601f1680156104b75780820380516001836020036101000a031916815260200191505b50848103835287818151815260200191508051906020019080838360005b838110156104f05780820151818401526020810190506104d5565b50505050905090810190601f16801561051d5780820380516001836020036101000a031916815260200191505b50848103825286818151815260200191508051906020019060200280838360005b8381101561055957808201518184015260208101905061053e565b505050509050019850505050505050505060405180910390f35b34801561057f57600080fd5b50610588610f08565b604051808260ff1660ff16815260200191505060405180910390f35b3480156105b057600080fd5b506105e0600480360360208110156105c757600080fd5b81019080803560ff169060200190929190505050610f1f565b60405180806020018660ff1660ff1681526020018560ff1660ff1681526020018060200180602001848103845289818151815260200191508051906020019060200280838360005b83811015610643578082015181840152602081019050610628565b50505050905001848103835286818151815260200191508051906020019060200280838360005b8381101561068557808201518184015260208101905061066a565b50505050905001848103825285818151815260200191508051906020019060200280838360005b838110156106c75780820151818401526020810190506106ac565b505050509050019850505050505050505060405180910390f35b3480156106ed57600080fd5b506106f66113e0565b005b34801561070457600080fd5b5061070d61151b565b6040518082815260200191505060405180910390f35b34801561072f57600080fd5b50610738611525565b604051808273ffffffffffffffffffffffffffffffffffffffff1673ffffffffffffffffffffffffffffffffffffffff16815260200191505060405180910390f35b34801561078657600080fd5b5061078f61154e565b604051808215151515815260200191505060405180910390f35b6107d8600480360360208110156107bf57600080fd5b81019080803560ff1690602001909291905050506115a5565b005b3480156107e657600080fd5b506107ef611721565b6040518082815260200191505060405180910390f35b34801561081157600080fd5b506108546004803603602081101561082857600080fd5b81019080803573ffffffffffffffffffffffffffffffffffffffff169060200190929190505050611727565b005b34801561086257600080fd5b506109ba6004803603606081101561087957600080fd5b81019080803560ff169060200190929190803590602001906401000000008111156108a357600080fd5b8201836020820111156108b557600080fd5b803590602001918460208302840111640100000000831117156108d757600080fd5b919080806020026020016040519081016040528093929190818152602001838360200280828437600081840152601f19601f8201169050808301925050505050505091929192908035906020019064010000000081111561093757600080fd5b82018360208201111561094957600080fd5b8035906020019184602083028401116401000000008311171561096b57600080fd5b919080806020026020016040519081016040528093929190818152602001838360200280828437600081840152601f19601f8201169050808301925050505050505091929192905050506117af565b005b6109c461154e565b1515610a38576040517f08c379a000000000000000000000000000000000000000000000000000000000815260040180806020018281038252600a8152602001807f4e6f74206f776e65722e0000000000000000000000000000000000000000000081525060200191505060405180910390fd5b60ff8016600560009054906101000a900460ff1660ff16101515610ac4576040517f08c379a00000000000000000000000000000000000000000000000000000000081526004018080602001828103825260178152602001807f43616e6e6f7420616464206d6f7265206d6f64656c732e00000000000000000081525060200191505060405180910390fd5b60a060405190810160405280600560009054906101000a900460ff1660ff1681526020018881526020018781526020018681526020014281525060026000600560009054906101000a900460ff1660ff1660ff16815260200190815260200160002060008201518160000160006101000a81548160ff021916908360ff1602179055506020820151816001019080519060200190610b6392919061198c565b506040820151816002019080519060200190610b8092919061198c565b506060820151816003019080519060200190610b9d929190611a0c565b50608082015181600401559050506080604051908101604052808560ff1681526020018460ff1681526020018381526020018281525060036000600560009054906101000a900460ff1660ff1660ff16815260200190815260200160002060008201518160000160006101000a81548160ff021916908360ff16021790555060208201518160000160016101000a81548160ff021916908360ff1602179055506040820151816001019080519060200190610c59929190611ab3565b506060820151816002019080519060200190610c76929190611ab3565b509050506001600560008282829054906101000a900460ff160192506101000a81548160ff021916908360ff16021790555050505050505050565b600060608060606000610cc2611b66565b600260008860ff1660ff16815260200190815260200160002060a060405190810160405290816000820160009054906101000a900460ff1660ff1660ff168152602001600182018054600181600116156101000203166002900480601f016020809104026020016040519081016040528092919081815260200182805460018160011615610100020316600290048015610d9d5780601f10610d7257610100808354040283529160200191610d9d565b820191906000526020600020905b815481529060010190602001808311610d8057829003601f168201915b50505050508152602001600282018054600181600116156101000203166002900480601f016020809104026020016040519081016040528092919081815260200182805460018160011615610100020316600290048015610e3f5780601f10610e1457610100808354040283529160200191610e3f565b820191906000526020600020905b815481529060010190602001808311610e2257829003601f168201915b5050505050815260200160038201805480602002602001604051908101604052809291908181526020018280548015610ebd57602002820191906000526020600020906000905b82829054906101000a900460ff1660ff1681526020019060010190602082600001049283019260010382029150808411610e865790505b50505050508152602001600482015481525050905080600001518160200151826040015183606001518460800151839350829250819150955095509550955095505091939590929450565b6000600560009054906101000a900460ff16905090565b606060008060608060011515600460003373ffffffffffffffffffffffffffffffffffffffff1673ffffffffffffffffffffffffffffffffffffffff16815260200190815260200160002060008860ff1660ff16815260200190815260200160002060009054906101000a900460ff16151514151561102c576040517f08c379a000000000000000000000000000000000000000000000000000000000815260040180806020018281038252602e8152602001807f53656e64657220646f6573206e6f7420686176652072696768747320746f207681526020017f6965772070726f7065727469657300000000000000000000000000000000000081525060400191505060405180910390fd5b611034611b99565b600360008860ff1660ff168152602001908152602001600020608060405190810160405290816000820160009054906101000a900460ff1660ff1660ff1681526020016000820160019054906101000a900460ff1660ff1660ff1681526020016001820180548060200260200160405190810160405280929190818152602001828054801561110857602002820191906000526020600020906000905b82829054906101000a900460030b60030b815260200190600401906020826003010492830192600103820291508084116110d15790505b505050505081526020016002820180548060200260200160405190810160405280929190818152602001828054801561118657602002820191906000526020600020906000905b82829054906101000a900460030b60030b8152602001906004019060208260030104928301926001038202915080841161114f5790505b5050505050815250509050611199611b66565b600260008960ff1660ff16815260200190815260200160002060a060405190810160405290816000820160009054906101000a900460ff1660ff1660ff168152602001600182018054600181600116156101000203166002900480601f0160208091040260200160405190810160405280929190818152602001828054600181600116156101000203166002900480156112745780601f1061124957610100808354040283529160200191611274565b820191906000526020600020905b81548152906001019060200180831161125757829003601f168201915b50505050508152602001600282018054600181600116156101000203166002900480601f0160208091040260200160405190810160405280929190818152602001828054600181600116156101000203166002900480156113165780601f106112eb57610100808354040283529160200191611316565b820191906000526020600020905b8154815290600101906020018083116112f957829003601f168201915b505050505081526020016003820180548060200260200160405190810160405280929190818152602001828054801561139457602002820191906000526020600020906000905b82829054906101000a900460ff1660ff168152602001906001019060208260000104928301926001038202915080841161135d5790505b5050505050815260200160048201548152505090508060600151826000015183602001518460400151856060015184945081915080905096509650965096509650505091939590929450565b6113e861154e565b151561145c576040517f08c379a000000000000000000000000000000000000000000000000000000000815260040180806020018281038252600a8152602001807f4e6f74206f776e65722e0000000000000000000000000000000000000000000081525060200191505060405180910390fd5b600073ffffffffffffffffffffffffffffffffffffffff166000809054906101000a900473ffffffffffffffffffffffffffffffffffffffff1673ffffffffffffffffffffffffffffffffffffffff167f8be0079c531659141344cd1fd0a4f28419497f9722a3daafe3b4186f6b6457e060405160405180910390a360008060006101000a81548173ffffffffffffffffffffffffffffffffffffffff021916908373ffffffffffffffffffffffffffffffffffffffff160217905550565b6000600154905090565b60008060009054906101000a900473ffffffffffffffffffffffffffffffffffffffff16905090565b60008060009054906101000a900473ffffffffffffffffffffffffffffffffffffffff1673ffffffffffffffffffffffffffffffffffffffff163373ffffffffffffffffffffffffffffffffffffffff1614905090565b60015434141515611644576040517f08c379a000000000000000000000000000000000000000000000000000000000815260040180806020018281038252602d8152602001807f416d6f756e742073656e74206973206e6f7420657175616c20746f207468652081526020017f7365727669636520636f73742e0000000000000000000000000000000000000081525060400191505060405180910390fd5b600061164e611525565b90508073ffffffffffffffffffffffffffffffffffffffff166108fc3073ffffffffffffffffffffffffffffffffffffffff16319081150290604051600060405180830381858888f193505050501580156116ad573d6000803e3d6000fd5b506001600460003373ffffffffffffffffffffffffffffffffffffffff1673ffffffffffffffffffffffffffffffffffffffff16815260200190815260200160002060008460ff1660ff16815260200190815260200160002060006101000a81548160ff0219169083151502179055505050565b60015481565b61172f61154e565b15156117a3576040517f08c379a000000000000000000000000000000000000000000000000000000000815260040180806020018281038252600a8152602001807f4e6f74206f776e65722e0000000000000000000000000000000000000000000081525060200191505060405180910390fd5b6117ac81611892565b50565b6117b761154e565b151561182b576040517f08c379a000000000000000000000000000000000000000000000000000000000815260040180806020018281038252600a8152602001807f4e6f74206f776e65722e0000000000000000000000000000000000000000000081525060200191505060405180910390fd5b81600360008560ff1660ff168152602001908152602001600020600101908051906020019061185b929190611bc8565b5080600360008560ff1660ff168152602001908152602001600020600201908051906020019061188c929190611bc8565b50505050565b600073ffffffffffffffffffffffffffffffffffffffff168173ffffffffffffffffffffffffffffffffffffffff16141515156118ce57600080fd5b8073ffffffffffffffffffffffffffffffffffffffff166000809054906101000a900473ffffffffffffffffffffffffffffffffffffffff1673ffffffffffffffffffffffffffffffffffffffff167f8be0079c531659141344cd1fd0a4f28419497f9722a3daafe3b4186f6b6457e060405160405180910390a3806000806101000a81548173ffffffffffffffffffffffffffffffffffffffff021916908373ffffffffffffffffffffffffffffffffffffffff16021790555050565b828054600181600116156101000203166002900490600052602060002090601f016020900481019282601f106119cd57805160ff19168380011785556119fb565b828001600101855582156119fb579182015b828111156119fa5782518255916020019190600101906119df565b5b509050611a089190611c7b565b5090565b82805482825590600052602060002090601f01602090048101928215611aa25791602002820160005b83821115611a7357835183826101000a81548160ff021916908360ff1602179055509260200192600101602081600001049283019260010302611a35565b8015611aa05782816101000a81549060ff0219169055600101602081600001049283019260010302611a73565b505b509050611aaf9190611ca0565b5090565b82805482825590600052602060002090600701600890048101928215611b555791602002820160005b83821115611b2357835183826101000a81548163ffffffff021916908360030b63ffffffff1602179055509260200192600401602081600301049283019260010302611adc565b8015611b535782816101000a81549063ffffffff0219169055600401602081600301049283019260010302611b23565b505b509050611b629190611cd0565b5090565b60a060405190810160405280600060ff168152602001606081526020016060815260200160608152602001600081525090565b608060405190810160405280600060ff168152602001600060ff16815260200160608152602001606081525090565b82805482825590600052602060002090600701600890048101928215611c6a5791602002820160005b83821115611c3857835183826101000a81548163ffffffff021916908360030b63ffffffff1602179055509260200192600401602081600301049283019260010302611bf1565b8015611c685782816101000a81549063ffffffff0219169055600401602081600301049283019260010302611c38565b505b509050611c779190611cd0565b5090565b611c9d91905b80821115611c99576000816000905550600101611c81565b5090565b90565b611ccd91905b80821115611cc957600081816101000a81549060ff021916905550600101611ca6565b5090565b90565b611d0091905b80821115611cfc57600081816101000a81549063ffffffff021916905550600101611cd6565b5090565b9056fea165627a7a723058209e8b6f9e7b3aa222be8ad2f630816924bf687a32bf1cf0a52714b62a7e745d7b0029",
  "source": "/* \n    - Making something private only prevents other contracts from accessing and modifying the information\n    - style/conventions: https://solidity.readthedocs.io/en/v0.5.3/style-guide.html?highlight=style\n*/\n\npragma solidity ^0.5.0;\n\n// Ownable.sol\nimport \"installed_contracts/zeppelin/contracts/ownership/Ownable.sol\";\n\ncontract MlConsultancy is Ownable {\n\n    /* data about the machine learning model */\n    struct Model {\n        uint8 id;           // the id for this model \n        string dataset;     // dataset used\n        string learner;     // model name\n        uint8[] outcomes;   // outcomes/classes\n        uint256 timestamp;  // timestamp when model was uploaded\n    }\n\n    /* weights for a specific model */\n    struct ModelWeights {\n        uint8 nDecimals;   // number of decimal places \n        uint8 nDims;       // total number of dimensions for features\n        int32[] intercept; // intercept values\n        int32[] weights;   // weight/coefficients values\n    }\n\n    /* the cost required to access weights */\n    uint public SERVICE_COST = 0.01 ether;\n\n    /* maximum number of different models an owner can have */\n    uint8 constant maxModels = 255; \n\n    /* holds different models added by the owner */\n    mapping(uint8 => Model) private models;\n\n    /* holds weights for different models */\n    mapping(uint8 => ModelWeights) private modelWeights;\n\n    /* hold the rights for an address to view weights */\n    mapping(address => mapping (uint8 => bool)) private clientAccess;\n\n    /* holds count of the total models */\n    uint8 private modelCount;\n\n    /* this constructor is executed at initialization and sets the owner of the contract */\n    constructor() public { \n        modelCount = 0; // set number of models to 0\n    }\n\n    /* get service cost */\n    function getServiceCost() public view returns (uint) {\n        return SERVICE_COST; \n    }\n\n    /* returns the total number of models */\n    function getModelCount() public view returns (uint8) {\n        return modelCount;\n    }\n    \n    /* returns model details for the id passed */\n    function getModelDetails(uint8 modelId) public view returns (\n        uint8 id, \n        string memory, \n        string memory, \n        uint8[] memory, \n        uint256\n    ) \n    {\n        Model memory modelAccess = models[modelId];\n        return (\n            modelAccess.id, \n            modelAccess.dataset, \n            modelAccess.learner, \n            modelAccess.outcomes, \n            modelAccess.timestamp\n        );\n    }\n\n    /* adds a new model (can only be called by the owner) */\n    function addModel(\n        string memory dataset, \n        string memory learner, \n        uint8[] memory outcomes,\n        uint8 nDecimals, \n        uint8 nDims, \n        int32[] memory intercept,\n        int32[] memory weights\n    ) \n        public \n        onlyOwner() \n    {\n       \n        // check if more models can be added \n        require(modelCount < maxModels, \"Cannot add more models.\");\n\n        // add new model to dictionary \n        models[modelCount] = Model(modelCount, dataset, learner, outcomes, now);\n\n        // add model weights to dictionary \n        modelWeights[modelCount] = ModelWeights(nDecimals, nDims, intercept, weights);\n\n        // increment model count \n        modelCount += 1;\n    }\n\n    /* update model weights and intercept only accessible by owner  */\n    function updateModel(\n        uint8 modelId, \n        int32[] memory intercept, \n        int32[] memory weights\n    ) \n        public \n        onlyOwner()\n    {\n        modelWeights[modelId].intercept = intercept;\n        modelWeights[modelId].weights = weights;\n    }\n\n    /* pay for service since if you put a return with payable u just make a call */\n    /* and get the weights for free */\n    function payService(uint8 modelId) public payable {        \n        require(msg.value == SERVICE_COST, \"Amount sent is not equal to the service cost.\");\n        \n        // send ammount to the owner \n        address payable ownerWallet = address(uint160(owner())); // cast to payable\n        ownerWallet.transfer(address(this).balance); // send payment (throws on failure unlike send)\n        \n        // give access to weights to the client\n        clientAccess[msg.sender][modelId] = true; \n    }\n\n    /* return weights if sender has permission/paid for the service */\n    function getWeights(uint8 modelId) public view returns (\n        uint8[] memory, \n        uint8, \n        uint8, \n        int32[] memory, \n        int32[] memory\n    ) \n    {\n        require(clientAccess[msg.sender][modelId] == true, \"Sender does not have rights to view properties\");\n\n        // get weights if user has permission to \n        ModelWeights memory weightsAccess = modelWeights[modelId];\n        Model memory modelAccess = models[modelId];\n        \n        // return values \n        return (\n            modelAccess.outcomes, \n            weightsAccess.nDecimals, \n            weightsAccess.nDims, \n            weightsAccess.intercept, \n            weightsAccess.weights\n        );\n    }\n}",
  "sourcePath": "/home/delinvas/repos/ari5122_assignment/src/solidity/ml_consultancy_truffle/contracts/MlConsultancy.sol",
  "compiler": {
    "name": "solc",
    "version": "0.5.0+commit.1d4f565a.Emscripten.clang"
  },
  "schemaVersion": "3.0.1",
  "updatedAt": "2019-02-08T23:44:50.832Z",
  "devdoc": {
    "methods": {
      "isOwner()": {
        "return": "true if `msg.sender` is the owner of the contract."
      },
      "owner()": {
        "return": "the address of the owner."
      },
      "renounceOwnership()": {
        "details": "Allows the current owner to relinquish control of the contract."
      },
      "transferOwnership(address)": {
        "details": "Allows the current owner to transfer control of the contract to a newOwner.",
        "params": {
          "newOwner": "The address to transfer ownership to."
        }
      }
    }
  },
  "userdoc": {
    "methods": {
      "renounceOwnership()": {
        "notice": "Renouncing to ownership will leave the contract without an owner. It will not be possible to call the functions with the `onlyOwner` modifier anymore."
      }
    }
  }
}